:020000040800F2
:100000003006002001010008051100087D100008DD
:10001000811000083F0B0008CB23000800000000FF
:10002000000000000000000000000000A918000807
:10003000090D000800000000591700081D1B0008EA
:100040001B0100081B0100081B0100081B01000820
:100050001B0100081B0100081B0100081B01000810
:100060001B0100081B0100081B0100081B01000800
:100070001B0100081B0100081B0100081B010008F0
:100080001B0100081B0100081B0100081B010008E0
:100090001B0100081B0100081B0100081B010008D0
:1000A0001B010008E51B00081B0100081B010008DC
:1000B0008D1C00081B010008A51C00081B0100087E
:1000C0001B0100081B0100081B0100081B010008A0
:1000D0001B010008D11F0008592000081B0100085F
:1000E0001B0100081B0100081B010008DFF80CD0F1
:1000F00000F0EEFB00480047792E00083006002093
:100100000648804706480047FEE7FEE7FEE7FEE7B1
:10011000FEE7FEE7FEE7FEE7FEE7FEE7211B00083D
:10012000ED00000810B5002200E0521C835C8C5CDE
:10013000A34201D1002BF8D1D8B2E1B2401A10BDD0
:10014000F0B480EA0102D40F4200B2EB410F02D2B8
:100150000246084611464A0042D0C30DDDB2C1F343
:10016000C752AD1A202D35DAC1F3160141F4000251
:1001700004B15242C5F1200602FA06F12A411044A8
:10018000B3EBD05F23D0C4B1012DA0EBC35009DC89
:10019000F0BC4FF0004202EAC352DBB200F50000AF
:1001A00000F034BA400000F1807000EBC350A0F1C1
:1001B000807040EAD170490009E0490841EAC07105
:1001C000A0EBC35000F50000400800EBC350F0BCAA
:1001D00000F013BA6142012202EB4101001BF6E775
:1001E000F0BC704781F00041AAE780F00040A7E72B
:1001F00080EA010210B502F00043400022D04A001C
:100200001FD0010E01EB1261C0F35600C2F356027B
:1002100040F4000042F40002A0FB022000047F39F9
:10022000140400D0401C50EA124001D44000491E82
:10023000C2B20C0604EBD010401C4008802A02D049
:1002400003E0002010BD20F00100002900DA0020AA
:10025000184310BD30B480EA010202F0004530F0CE
:10026000004221F0004013D090B1C30DD40DC2F371
:100270001601C0F31600E41A41F4000140F4000234
:100280007D34914201D3641C00E04900002C02DA65
:1002900030BC002070474FF400000023914201D38E
:1002A000891A034340084FEA4101F7D151B1914205
:1002B00002D14FF0004105E002D24FF0010101E010
:1002C0006FF0010103EBC450284430BC00F095B935
:1002D0002DE9FE4F81EA030404F0004421F00041BF
:1002E00000944FF0000B23F0004350EA01045ED06D
:1002F00052EA03045BD0C3F30A54C1F30A552C44F9
:10030000A4F2F3340194A0FB0254C1F3130141F4AD
:100310008011C3F3130343F4801301FB024400FB79
:10032000034E840A970A44EA815447EA8357A4FBA0
:10033000076802958D0A05FB07854FEA932C04FB9D
:100340000C542705029D4FEA065847EA1637B5EBCD
:1003500008056EEB070C870E920E47EA811742EAFA
:100360008312A7FB0201B6EB0B0164EB00042B0D1B
:1003700043EA0C335E1844EB1C50DA465146E7FB67
:100380000201C5F313044FEA0B3343EA14534FEA57
:100390000432019C43EA0603A4F10C040294009C7D
:1003A000CDE900B400F06FF903B0BDE8F08F002094
:1003B0000146F9E72DE9F04D81EA030404F0004B12
:1003C00021F0004514464FF0000A23F0004150EAA6
:1003D000050220D054EA01021DD0C5F30A57024697
:1003E000C5F31303C1F31300C1F30A5640F480159B
:1003F00043F48013A7EB0608101BD64608F2FD381D
:1004000073EB050002D308F1010801E092185B418B
:10041000B8F1000F03DA00200146BDE8F08D00209E
:100420004FF48011064684460EE0171B73EB050758
:1004300005D3121B63EB050306434CEA010C490884
:100440004FEA300092185B4150EA0107EDD152EAC1
:10045000030012D082EA040083EA0501084305D0B4
:10046000101BAB4106D20122002306E000224FF010
:10047000004302E06FF0010253101AEB06004CEB50
:10048000085110EB0A0041EB0B01BDE8F04D00F004
:10049000EBB896230022114600F0B8B80EB5C10F94
:1004A00080EAE0700844CA07002140F233438DE837
:1004B0000E000A460B4600F0E6F803B000BD20F03F
:1004C0000040C10DC0F3160040F400007F2901DA9E
:1004D00000207047962903DCC1F19601C84070479F
:1004E00096398840704700F0004230F000400AD052
:1004F000C10D01F56071C0F3160042EA0151C20856
:1005000040071143704700200146704701F0004347
:1005100030B421F0004150EA010206D00A0DA2F5E4
:100520006072C1F31301002A02DC30BC0020704766
:10053000440F44EAC104C100E01830BC00EBC250D3
:1005400000F05BB8002801DBC0F10040002901DBAE
:10055000C1F1004181427047002801DBC0F1004039
:10056000002901DBC1F100418842704730B50B46DC
:10057000014600202022012409E021FA02F59D42D3
:1005800005D303FA02F5491B04FA02F52844151EA7
:10059000A2F10102F1DC30BD2DE9F05F054600203B
:1005A00092469B4688460646814640241BE02846E4
:1005B00041464746224600F0ACF953465A46C01A17
:1005C000914110D311461846224600F093F92D1A96
:1005D00067EB01084F4622460120002100F08AF90E
:1005E00017EB00094E41201EA4F10104DFDC484650
:1005F00031462A464346BDE8F09F0029A8BF704710
:10060000401C490008BF20F00100704710B4B0FA48
:1006100080FC00FA0CF050EA010404BF10BC7047E3
:1006200049B1CCF1200421FA04F411FA0CF118BFFD
:10063000012121430843A3EB0C01CB1D4FEA0061CC
:100640004FEA102042BF002010BC704700EBC3509F
:1006500010440029A4BF10BC7047401C490008BFCB
:1006600020F0010010BC704710B5141E73F1000497
:1006700008DA401C41F1000192185B411A4301D194
:1006800020F0010010BD2DE9F04D92469B4611B1BE
:10069000B1FA81F202E0B0FA80F22032904600F026
:1006A00029F904460F4640EA0A0041EA0B01534685
:1006B0005A46084313D0114653EA010019D0C8F135
:1006C0004002504600F025F905460E465046594670
:1006D000424600F00FF9084305D0012004E020460F
:1006E0003946BDE8F08D0020054346EAE0762C430C
:1006F00037430A986305E40AA0EB08000022FD0ACC
:1007000044EA47540A3002D500200146E9E70105D2
:1007100010196941DDE9084500196941BDE8F04D4E
:10072000A2E72DE9FE4F804681EA0300C00F0C4688
:10073000009021F0004123F00045B8EB0200A941F0
:1007400005D24046214690461C460B46024623F001
:100750000040104347D0270DC7F30A00C3F30A51E6
:100760000290401A019040286BDAC3F3130040F462
:10077000801B0098924620B10023D2EB030A63EB62
:100780000B0B01985946C0F14002504600F0B2F8F8
:1007900006460D4650465946019A00F0CAF810EB3D
:1007A00008006141002487EA115284EAE7731A4382
:1007B00040D0009A62B3019A012A4FEA075215DC31
:1007C000001B61EB02014FF0004202EA0752CDE943
:1007D0000042001C41F5801132462B46FFF753FFC3
:1007E00003B0BDE8F08F40462146F9E7001B61EBFE
:1007F0000201001C41F5801300185B412018A2F58E
:10080000001747EB030140EAD570B6196D4111E0BE
:100810006D084FEA360645EAC0754FEA0752001BDD
:1008200061EB0201001C41F5801149084FEA3000DC
:100830000019514132462B4603B0BDE8F04FFFF797
:1008400013BF0098012240000023D0EB020263EBAB
:10085000E073009821464FEAE074B8EB000061EBCA
:100860000401E9E783F000435BE781F0004158E7CA
:10087000C1F30A52C1F3130140F2FF3341F4801176
:100880009A4202DA00200146704740F233439A420E
:10089000A2F2334202DC524200F03BB800F02AB828
:1008A00030B5041E71F1000404DB4FF000444042F7
:1008B00064EB0101141E73F1000405DB1C464FF0CC
:1008C0000043524263EB0403994208BF904230BD9B
:1008D000064C074D06E0E06840F0010394E807008D
:1008E00098471034AC42F6D3FFF704FC2C360008CE
:1008F0004C360008202A04DB203A00FA02F10020DE
:1009000070479140C2F1200320FA03F3194390404D
:100910007047202A04DB203A21FA02F000217047B8
:1009200021FA02F3D040C2F1200291400843194657
:100930007047202A06DBCB17203A41FA02F043EA3F
:10094000E07306E041FA02F3D040C2F12002914088
:1009500008431946704721B1826842F00102826063
:1009600003E0826822F001028260704710B50446FD
:100970001248844208D10121401500F01BFF0021DC
:10098000601500F017FF17E00D48844208D10121DF
:10099000001500F00FFF0021201500F00BFF0BE009
:1009A0000848844208D10121C80300F003FF002158
:1009B0004FF4004000F0FEFE10BD00000024014096
:1009C00000280140003C0140014600208A6802F0F6
:1009D00004020AB1012000E0002070470146C86C03
:1009E00080B270470246002013680B400BB1012013
:1009F00000E000207047014600208A6802F00802EB
:100A00000AB1012000E000207047000030B5024626
:100A10000020002350680F4C20400D790C6844EAF8
:100A200005242043506090680B4C2040D1E90254CB
:100A30002C434D7944EA450420439060D06A20F469
:100A400070000C7C641EE4B2234340EA0350D06281
:100A500030BD0000FFFEF0FFFDF7F1FFF0B50446EA
:100A60000D4600200021092D11DDE068A5F10A06E0
:100A700006EB4607072606FA07F18843A5F10A06A2
:100A800006EB460603FA06F10843E0600CE0206935
:100A900005EB4507072606FA07F1884305EB4506EF
:100AA00003FA06F108432061072A0FDA606B561E2D
:100AB00006EB86071F2606FA07F18843561E06EB4B
:100AC000860605FA06F10843606322E00D2A0FDA74
:100AD000206BD61F06EB86071F2606FA07F1884310
:100AE000D61F06EB860605FA06F10843206310E0E0
:100AF000E06AA2F10D0606EB86071F2606FA07F14B
:100B00008843A2F10D0606EB860605FA06F10843B6
:100B1000E062F0BD816841F008018160704721B159
:100B2000826842F4A002826003E0826822F4A0029C
:100B300082607047816841F004018160704700BFA6
:100B4000FEE7000008B50121042000F023FE4FF469
:100B50008070ADF8000010208DF8030003208DF8A0
:100B600002006946044800F0A3F94FF4807102487E
:100B700000F034FA08BD00000008014010B5FFF78E
:100B8000E1FF10BD2DE9FC47814600F0ABF84FF4C2
:100B90008071344800F020FA012002F013F94FF47C
:100BA0008071304800F01AFA1E2002F031F900F08E
:100BB00089F84FF480712B4800F005FA012802D122
:100BC0000020BDE8FC87502002F022F94FF480712C
:100BD000244800F0F8F908B90020F2E7502002F0AC
:100BE00017F9002405E000F041F80DF80400601C3E
:100BF000C4B2052CF7DB9DF800009DF801100844F5
:100C00009DF8021008449DF8031008449DF8041054
:100C1000884225D19DF801209DF8001002EB0120AB
:100C2000FFF73CFC074600220F4BFFF7C3FB0546CE
:100C3000FFF76CFCC9F804009DF803209DF8021032
:100C400002EB0120FFF72AFC05460022064BFFF7C6
:100C5000B1FB0746FFF75AFCC9F800000120B0E7D6
:100C60000020AEE7000801400000244070B50024D9
:100C7000002521E000BF4FF48071114800F0A3F976
:100C80000028F8D0282002F0C3F84FF480710C48F7
:100C900000F099F9012803D100EB4400C4B201E04F
:100CA0006006040E00BF4FF48071054800F08BF918
:100CB0000128F8D0681CC5B2082DDBDB204670BDCA
:100CC0000008014008B54FF48070ADF800004820DE
:100CD0008DF803006946024800F0EAF808BD0000FC
:100CE0000008014008B54FF48070ADF800001020F6
:100CF0008DF8030003208DF802006946014800F0DA
:100D0000D7F808BD00080140704700002DE9F04702
:100D10000A21062000F084F980464046FFF7B9FB1F
:100D200007462949FFF764FA06462849FFF760FAA3
:100D3000054627492846FFF70FFC01D8642416E032
:100D400024492846FFF7FEFB01D800240FE0214983
:100D50002846FFF747FA81461F49FFF749FA074639
:100D60001E49FFF777FA0646FFF7A9FBC4B21C49F4
:100D70000868FFF7B8FB064632460B4619A11C4827
:100D800001F036FB1A4A0321042000F03BFB144912
:100D90004868FFF7A8FB064632460B4615A11448E3
:100DA00001F026FB124A0521042000F02BFB22460D
:100DB00013A10F4801F01CFB0D4A0121032000F094
:100DC00021FBBDE8F08700003333533AA470B140F3
:100DD0009A994941000020410000C84266662640B9
:100DE0002400002054656D703A252E3166430000C2
:100DF0007C00002048756D693A252E316625250056
:100E0000426174746572793A2533642525000000C7
:100E100000200149087070476000002000487047BA
:100E20006401002001480078704700006000002045
:100E300010B501F0A5FF0BA000F09AFD40F6B83008
:100E400001F0C0FF10A000F093FD41F2883001F0E6
:100E5000B9FF11A000F08CFD4FF47A7001F0B2FFE1
:100E600010BD000041542B4349505354415F444549
:100E7000463D223139322E3136382E34352E32303D
:100E800035220D0A0000000041542B4349504D55B6
:100E9000583D310D0A00000041542B434950534541
:100EA000525645523D312C383038300D0A00000082
:100EB0002DE9F041024600250026002000230024F1
:100EC000002791F803C00CF00F0591F803C00CF057
:100ED000100CBCF1000F03D091F802C04CEA0505DC
:100EE00091F800C0BCF1000F31D0146800202BE055
:100EF0004FF0010C0CFA00F3B1F800C00CEA030645
:100F00009E4220D183004FF00F0C0CFA03F7BC4334
:100F100005FA03FC4CEA040491F803C0BCF1280F65
:100F200006D14FF0010C0CFA00FCC2F814C00AE024
:100F300091F803C0BCF1480F05D14FF0010C0CFA39
:100F400000FCC2F810C0401C0828D1D31460B1F8CE
:100F500000C0BCF1FF0F34DD546800202EE000F12A
:100F6000080C4FF0010808FA0CF3B1F800C00CEAC5
:100F700003069E4221D183004FF00F0C0CFA03F7B9
:100F8000BC4305FA03FC4CEA040491F803C0BCF12D
:100F9000280F05D100F1080C08FA0CF8C2F81480EB
:100FA00091F803C0BCF1480F07D100F1080C4FF0D5
:100FB000010808FA0CF8C2F81080401C0828CED3AB
:100FC0005460BDE8F0810246002093680B400BB1ED
:100FD000012000E0002070474161704701617047C7
:100FE0000AB1016100E041617047000010B504469C
:100FF0000723012221460948FFF730FD0121074858
:10100000FFF78DFD00BF02210448FFF7EBFC00282D
:10101000F9D00248FFF7E2FC10BD000000240140B7
:101020002DE9F04107460C460025002608E0384629
:10103000FFF7DCFF0544052001F0C4FE701CC6B2BA
:10104000A642F4DBB5FBF4F080B2BDE8F08100000D
:1010500008B50121082000F09DFB4FF47040ADF869
:10106000000010208DF8030003208DF8020069466F
:101070000148FFF71DFF08BD000C014000BFFEE75F
:1010800000BFFEE710B51B4804881B480078052800
:1010900022D2DFE800F01B03080F15001748046098
:1010A000174804601EE06042144908606042144919
:1010B000086017E06042114908601148046011E0BF
:1010C0000E48046060420E4908600BE000200B49A6
:1010D00008600B49086000BF002008490860084903
:1010E000086000BF00BF064801680448006800F0BF
:1010F000C1FC10BD6C0000206E00002074000020B8
:10110000780000207047000070B5002100230F22F6
:10111000C47804B3154C246804F4E064C4F5E064B6
:10112000210AC1F10403CA40447804FA03F1847827
:101130001440214309010E4C0678A155047804F0AF
:101140001F050124AC4005786D11AD0005F1E025C7
:10115000C5F8004109E0047804F01F050124AC4003
:10116000044D0678761145F8264070BD0CED00E080
:1011700000E400E080E100E002490143024A11601E
:10118000704700000000FA050CED00E070B5002487
:101190000EE00021204600F0EAF8002504E00020DF
:1011A00000F054F9681CC5B2802DF8DB601CC4B295
:1011B000082CEEDB70BD000008B50121082000F00E
:1011C000E9FA14208DF8030003208DF802004FF493
:1011D0008060ADF8000069460A48FFF769FE4FF4E9
:1011E0000060ADF8000069460648FFF761FE012285
:1011F00091020448FFF7F4FE0122D1020148FFF7F3
:10120000EFFE08BD000C014070B50546002419E052
:1012100080202041284008B1012000E00020024643
:101220004FF400610E48FFF7DBFE012291020C48EB
:10123000FFF7D6FE00224FF480610948FFF7D0FE89
:10124000601CC4B2082CE3DB012291020448FFF7C2
:10125000C7FE00224FF480610148FFF7C1FE70BD58
:10126000000C014010B50122D1020A48FFF7B8FE78
:10127000012291020748FFF7B3FE00224FF40061FC
:101280000448FFF7ADFE00224FF480610148FFF7EC
:10129000A7FE10BD000C014010B500224FF4006104
:1012A0000648FFF79DFE012291020448FFF798FED1
:1012B0000122D1020148FFF793FE10BD000C01404E
:1012C00070B5002406E0002500E06D1CB5F57A7FBE
:1012D000FBD3641CB4F57A7FF5D3FFF76DFFAE2026
:1012E00000F0A4F8D52000F0A1F8802000F09EF8CE
:1012F000A82000F09BF83F2000F098F8D32000F0E1
:1013000095F8002000F092F8402000F08FF8A1201E
:1013100000F08CF8C82000F089F8DA2000F086F898
:10132000122000F083F8812000F080F8CF2000F038
:101330007DF8D92000F07AF8F12000F077F8DB2072
:1013400000F074F8302000F071F8A42000F06EF87E
:10135000A62000F06BF88D2000F068F8142000F053
:1013600065F8AF2000F062F8FFF710FF70BD70B5B0
:1013700005460C4645F0B00000F058F8102141EA4F
:10138000141000F053F804F00F0000F04FF870BD97
:101390002DE9F04105460E461746721ED206110E83
:1013A0006A1E5206100EFFF7E2FF002409E0A7F1C3
:1013B0002001134A02EB0111085D00F047F8601CA0
:1013C000C4B2082CF3DB721ED206110E6A1E012372
:1013D00003EB4202D0B2FFF7CAFF00240BE0A7F1F3
:1013E0002001074A02EB011204F10801505C00F0F1
:1013F0002DF8601CC4B2082CF1DBBDE8F0810000C0
:101400003C3000082DE9F04107460E461546002401
:1014100007E02A5D3019C1B23846FFF7B9FF601CFA
:10142000C4B2285D0028F4D1BDE8F08110B50446AF
:10143000FFF718FF7820FFF7E7FE0020FFF7E4FE34
:101440002046FFF7E1FEFFF727FF10BD10B5044669
:10145000FFF708FF7820FFF7D7FE4020FFF7D4FE04
:101460002046FFF7D1FEFFF717FF10BD30B589B05A
:1014700005460C460121082000F08CF901210220CC
:1014800000F078F918208DF823000320ADF8200033
:101490008DF8220008A91C48FFF70AFDADF8185086
:1014A000ADF814400020ADF81A00ADF8160005A9FB
:1014B000164800F03BFD6020ADF804000020ADF8B8
:1014C0000A00ADF80C000120ADF8060001A90F4894
:1014D00000F082FC01A90D4800F0D8FC01210B4866
:1014E00000F051FC0821094800F0C6FC082107481B
:1014F00000F00AFD0121054800F02AFC0121034803
:1015000000F035FC09B030BD000C01400004004083
:1015100070B505462C4609E020780D2802D02078C9
:101520000A2802D10020207003E0641C20780028E3
:10153000F2D100BF54A12846FEF7F4FD40B90120C6
:1015400052490870FFF79EFD51A000F041FF9AE05C
:1015500052A12846FEF7E6FD40B902204B4908702B
:10156000FFF790FD4EA000F033FF8CE04FA128461E
:10157000FEF7D8FD40B9032044490870FFF782FD0B
:101580004BA000F025FF7EE04CA12846FEF7CAFDE7
:1015900040B904203D490870FFF774FD48A000F0F1
:1015A00017FF70E04AA12846FEF7BCFD40B90020B5
:1015B00036490870FFF766FD46A000F009FF62E0BB
:1015C00046A12846FEF7AEFDC8B94548008800F59B
:1015D000FA70B0F5E15F06DA4148008800F5FA706C
:1015E0003F49088003E041F61F403D490880FFF76E
:1015F00049FD3B4801883BA000F0EAFE43E03EA1E4
:101600002846FEF78FFDB0B935480088B0F5FA7F5F
:1016100006DB33480088A0F5FA703149088002E003
:1016200000202F490880FFF72DFD2D48018833A0A9
:1016300000F0CEFE27E037A12846FEF773FD30B953
:1016400001203649087036A000F0C2FE1BE039A127
:101650002846FEF767FD30B902203049087037A0F0
:1016600000F0B6FE0FE03AA12846FEF75BFD50B948
:10167000002006490870FFF705FD03202749087080
:1016800014A000F0A5FE70BD265231006E000020AF
:10169000466F72776172640D0A00000026523200B4
:1016A0004261636B776172640D0A00002652330059
:1016B0004C656674205475726E0D0A002652340013
:1016C0005269676874205475726E0D0A000000003C
:1016D0002652300053746F700D0A000026523700F6
:1016E0006C00002053706565642055702C205057A5
:1016F0004D3D25640D0A0000265238005370656583
:101700006420446F776E2C2050574D3D25640D0AA0
:101710000000000026523133000000006A00002063
:10172000536572766F204C656674205374617274D1
:101730000D0A000026523134000000005365727615
:101740006F2052696768742053746172740D0A00C7
:10175000265231360000000070470000014600208C
:10176000034A506820F4404008435060704700002E
:101770000010024029B1064AD2690243044BDA61E3
:1017800004E0034AD2698243014BDA6170470000EA
:101790000010024029B1064A92690243044B9A6143
:1017A00004E0034A92698243014B9A61704700004A
:1017B0000010024029B1064AD2680243044BDA60A5
:1017C00004E0034AD2688243014BDA6070470000AC
:1017D0000010024030B500210022002400232D4DCE
:1017E0006D6805F00C0121B1042905D0082923D129
:1017F00005E0294D056022E0274D05601FE0254DDD
:101800006D6805F47012234D6D6805F4803402256F
:1018100005EB92421CB9214D554305600BE01D4D6F
:101820006D6805F400351DB11C4D5543056002E09F
:10183000194D5543056002E0174D056000BF00BF1C
:10184000144D6D6805F0F0010909154D6B5C0568D4
:10185000DD4045600F4D6D6805F4E061090A104DEB
:101860006B5C4568DD4085600A4D6D6805F460512C
:10187000C90A0B4D6B5C4568DD40C560054D6D6860
:1018800005F44041890B074D6B5CC568B5FBF3F56A
:10189000056130BD0010024000127A0000093D00D1
:1018A00040000020500000207047000000B587B0C5
:1018B00001214804FFF75EFF01210420FFF76AFFC2
:1018C00018208DF81B000420ADF8180003208DF8B7
:1018D0001A0006A91C48FFF7EBFA48208DF81B00F8
:1018E0000820ADF8180006A91748FFF7E1FA4FF4F1
:1018F000E13002900020ADF814000C20ADF8120089
:101900000020ADF81000ADF80E00ADF80C0002A9F3
:101910000E4800F0E5FC012240F225510B4800F092
:10192000B9FC0121094800F072FC26208DF8040062
:1019300001208DF807008DF805008DF8060001A83C
:10194000FFF7E2FB07B000BD000801400044004083
:1019500010B504462146054800F033FD00BF802144
:10196000024800F060FC0028F9D010BD004400409F
:1019700070B50446002504E0605DFFF7E9FF681CD0
:10198000C5B2605D0028F7D170BD10B500F002F857
:1019900010BD00000CB50020019000903348006895
:1019A00040F480303149086000BF3048006800F4DE
:1019B000003000900198401C0190009818B90198DF
:1019C000B0F5A06FF1D12948006800F4003010B1E3
:1019D0000120009001E0002000900098012843D1F0
:1019E0002348006840F0100021490860084600685C
:1019F00020F0030008600846006840F0020008601C
:101A00001A484068194948600846406848600846D6
:101A1000406840F4806048600846406820F47C10CC
:101A200048600846406840F4E8104860084600688E
:101A300040F08070086000BF0C48006800F0007043
:101A40000028F9D00948406820F0030007494860A1
:101A50000846406840F00200486000BF0348406804
:101A600000F00C000828F9D10CBD00000010024065
:101A70000020024070B504460D46002C0ADD4FF4EC
:101A800080411A48FFF7A8FA4FF400411748FFF7C2
:101A9000A5FA0AE04FF480411448FFF79FFA4FF48B
:101AA00000411248FFF798FA6442002D0ADD4FF416
:101AB00000510E48FFF792FA4FF480510B48FFF7A0
:101AC0008BFA0AE04FF400510848FFF785FA4FF40B
:101AD00080510648FFF782FA6D42A1B2044800F037
:101AE00022FAA9B2024800F01CFA70BD000C0140B5
:101AF00000040040042808D14FF0E021096941F0BA
:101B000004014FF0E022116107E04FF0E021096984
:101B100021F004014FF0E02211617047704700008E
:101B200010B51348006840F00100114908600846EC
:101B30004068104908400E494860084600680E4950
:101B400008400B4908600846006820F480200860BF
:101B50000846406820F4FE0048604FF41F0088608B
:101B6000FFF713FF4FF000600449086010BD00004C
:101B7000001002400000FFF8FFFFF6FE08ED00E055
:101B80001FB50121C802FFF705FE3120ADF808009E
:101B900041F61F40ADF804000020ADF80A00ADF892
:101BA000060001A90E4800F0C1F9012211460C48B7
:101BB00000F009F919208DF8000001208DF80100CE
:101BC0008DF802008DF803006846FFF79DFA0121A9
:101BD000034800F0CCF80121014800F0D4F81FBD03
:101BE000002C014010B50121244800F0DBF800284A
:101BF00042D00121214800F0B7F82148007801289F
:101C000014D120480088B0F5FF7F05DD1D4800880D
:101C10000A381C49088003E04FF4FA70194908801B
:101C200018480188184800F07EF925E0144800782B
:101C3000022814D113480088B0F59B6F05DA1148CB
:101C400000880A300F49088003E040F2E2400D4965
:101C500008800C4801880C4800F065F90CE0084841
:101C60000078032808D140F227300649088008464A
:101C70000188054800F057F910BD0000002C014014
:101C80006A00002068000020000800404FF08040FB
:101C9000008A4FF08040008A20F001004FF0804120
:101CA00008827047044800880348008820F001003B
:101CB00001490880704700001008004030B589B025
:101CC00005460C4601210820FFF764FD0121042090
:101CD000FFF750FD4FF40070ADF8200018208DF88C
:101CE000230003208DF8220008A91748FFF7E0F829
:101CF000ADF81850ADF814400020ADF81600ADF85E
:101D00001A0005A9114800F011F96020ADF804008F
:101D10000020ADF80C000120ADF806000020ADF861
:101D20000A0001A9094800F0B1F80021074800F0B5
:101D3000EBF80121054800F00BF80121034800F001
:101D400016F809B030BD0000000C0140000800404A
:101D500021B1028842F08002028004E002884FF63E
:101D60007F731A4002807047CA430282704721B1D4
:101D7000028842F00102028004E002884FF6FE73FE
:101D80001A400280704731B1B0F8442042F400425A
:101D9000A0F8442005E0B0F84420C2F30E02A0F8F9
:101DA0004420704730B50246002000230024158AE5
:101DB00005EA0103958905EA010413B10CB101207C
:101DC00000E0002030BD1AB183890B43838102E01B
:101DD00083898B438381704770B5002400220023E0
:101DE000058C4FF6FF6635400584028C8388848B12
:101DF0004FF68F752C404FF6FC752C400D882C4308
:101E00004FF6FF552A400D894FF6FF7606EA052565
:101E10002A434D8806EA05252A43154DA84202D0DB
:101E2000144DA8421DD14FF2FF752A404D894FF63F
:101E3000FF7606EA05252A434FF6FF352A408D88AE
:101E400006EA05252A434EF6FF752B404DF6FF7531
:101E50002B408D8906EA05152B43CD8906EA051529
:101E60002B4383808483CD888587028470BD0000E6
:101E7000002C0140003401400A460021818B4FF6BE
:101E8000F7731940114381837047000070B5002239
:101E900000230024058C4EF6FF7635400584038C24
:101EA0008488828B48F6FF752A404FF6FF452A400A
:101EB0000D884FF6FF7606EA05252A434DF6FF7595
:101EC0002B400D8906EA05352B434D8806EA05357A
:101ED0002B430B4DA84202D00A4DA84208D14BF625
:101EE000FF752C408D894FF6FF7606EA85152C4349
:101EF00084808283CD88A0F84050038470BD0000A8
:101F0000002C0140003401400A460021818B4FF231
:101F1000FF7319404FF6FF7303EA022319438183CD
:101F2000704781877047A0F84010704700220288F0
:101F30001D4B98420ED01D4B98420BD0B0F1804FF4
:101F400008D01B4B984205D01A4B984202D01A4B2E
:101F5000984204D14FF68F731A404B881A43174B9F
:101F6000984207D0164B984204D04FF6FF431A40D0
:101F7000CB881A4302808B8883850B8803850A4BA4
:101F800098420BD0094B984208D00E4B984205D08E
:101F90000D4B984202D00D4B984201D10B7A03862B
:101FA0000123838270470000002C0140003401406F
:101FB0000004004000080040000C004000100040F9
:101FC000001400400040014000440140004801402E
:101FD00010B540F225511D4800F032F910B31B48EE
:101FE00000F0EAF9C4B21A48008800F40040C8B909
:101FF0001748008800F4804060B10A2C03D000200C
:102000001349088020E01248008840F4004010493D
:10201000088019E00D2C06D10D48008840F480405E
:102020000B49088010E00A480088C0F30D000949F8
:102030000C5407480088401C054908800846008861
:10204000C72801DD0020088010BD000000380140D5
:102050005C0000209C00002010B540F225515C4837
:1020600000F0EEF8012874D1594800F0A5F9C4B287
:102070005848007828B92B2C02D101205549087006
:10208000A0E054480078012809D1492C03D102204E
:102090005049087096E000204E49087092E04D4883
:1020A0000078022809D1502C03D103204949087037
:1020B00088E000204749087084E0464800780328FB
:1020C00009D1442C03D10420424908707AE0002051
:1020D0004049087076E03F480078042809D12C2C4C
:1020E00003D105203B4908706CE000203949087095
:1020F00068E038480078052818D1302C0CDB392CE2
:102100000ADCA4F130003449097801EB810100EBCD
:1021100041003149087055E02C2C03D106202D498F
:1021200008704FE000202B4908704BE029480078E8
:1021300006281CD1302C0DDB392C0BDCA4F130002F
:102140002649097801EB810100EB41002349087021
:1021500038E03CE03A2C06D107201E4908700020E8
:102160001F4908802EE000201A4908702AE019480B
:102170000078072826D11A4800881849097888422B
:1021800007DA174801880088401C154A1080154856
:1021900044541348008811490978884212DB002012
:1021A00010490F4A128888540D4800880E4908804B
:1021B00001200E4908700020064908700749087080
:1021C0000549087040F22551014800F011F810BD92
:1021D00000440040610000206500002064000020F1
:1021E00062000020640100205E00002060000020EA
:1021F00010B50022002340F66A14A14200D100BFAE
:102200000A1201249440A3B2DC43048010BD21B122
:10221000828942F40052828104E082894DF6FF7384
:102220001A408281704702460020B1F5007F00D13C
:1022300000BF13880B400BB1012000E00020704765
:1022400070B50246002400230025002040F66A16DF
:10225000B14200D100BFC1F3421501F01F030126B6
:1022600006FA03F3012D02D19689334006E0022DD0
:1022700002D1168A334001E0968A33400C120126BF
:1022800006FA04F41688344013B10CB1012000E0C2
:10229000002070BDF0B50346002400260025002074
:1022A00040F66A17B94200D100BF1846C1F3421484
:1022B00001F01F06012707FA06F5012C01D10C30A9
:1022C00004E0022C01D1103000E014301AB107688C
:1022D0002F43076002E00768AF430760F0BD0000CE
:1022E0002DE9F04786B005460E460024A24600BF01
:1022F000A1460027B08900B100BF2F462C8A4CF6BA
:10230000FF700440F08804432C82AC894EF6F31031
:102310000440B08831890843718908430443AC8183
:10232000AC8A4FF6FF400440B0890443AC8201A858
:10233000FFF750FA1F48874202D1DDF810A001E0F4
:10234000DDF80CA0A88900F4004040B10AEBCA00F7
:1023500000EB0A1031684900B0FBF1F807E00AEB26
:10236000CA0000EB0A1031688900B0FBF1F8642064
:10237000B8FBF0F004012009642101FB1089A88951
:1023800000F4004040B1322000EBC900B0FBF1F096
:1023900000F00700044308E0322000EB091064213C
:1023A000B0FBF1F000F00F0004432C8106B0BDE853
:1023B000F08700000038014001468888C0F308001B
:1023C0007047C1F308028280704700BFFEE700003B
:1023D0000FB4054B10B503A9044A029800F0EEF8BB
:1023E00010BC5DF814FB00005D2E000858000020B2
:1023F0000FB4084B10B504A902AA039800F0DEF848
:10240000044602A9002000F070FC204610BC5DF8D4
:1024100014FB0000EB2C000802E008C8121F08C1E2
:10242000002AFAD170477047002001E001C1121F55
:10243000002AFBD1704700002DE9FF5F82B0002128
:10244000DDE90430020DDDF840B0034318D044F656
:102450001050A2F2FF3242431514119801281FD0E8
:10246000A5EB0B00401C5FEA000A4FF000064E4F40
:10247000DFF83891B046504615D5CAF1000413E094
:10248000119801244AA3012801D16FEA0B01029897
:10249000119AC0E90031C0E9024206B0BDE8F09FE0
:1024A000CBF10000DFE704460021404A491842EB27
:1024B0000450CDE9001012E0E00707D032463B4659
:1024C00040464946FDF704FF8046894632463B4672
:1024D00010461946FDF7FCFE06460F466410002C18
:1024E000EAD1DDE90401DDE90023BAF1000F06DAE3
:1024F000FDF7EEFE42464B46FDF7EAFE05E0FDF72E
:1025000059FF42464B46FDF755FF04460E46002252
:10251000284BFEF7C5F903D84FF0FF30014607E01E
:102520000022254B20463146FEF7FBF8FEF7A0F9C6
:10253000102409E0002C0ADB0A220023FEF72CF805
:10254000039B30321A55641E50EA0102F2D1641C1A
:10255000039AC4F111031444119A012A03D00122F1
:1025600008430DD10AE0084304D000204FF0110BBE
:10257000119072E7A3EB0B056D1E0DE05B4504DDCA
:102580004FF0000205F1010504E003DA4FF000020C
:10259000A5F10105002AECD002981199C0E9023199
:1025A000C0E9004579E70000000014400000F03F5A
:1025B000300000000000F0430000E03F2DE9FF4F35
:1025C00095B09B468946064600250FE2252877D11F
:1025D00000242746F84A0121059400E0044316F838
:1025E000013F203B01FA03F01042F7D130782A284E
:1025F00011D06FF02F033078A0F13002092A16D8DD
:10260000059A44F0020402EB820203EB42021044FA
:10261000761C0590EFE759F8042B0592002A03DA9F
:10262000504244F40054059044F00204761C307883
:102630002E2816D116F8010F44F004042A280DD0D4
:102640006FF02F023078A0F13003092B09D807EB87
:10265000870302EB4303C718761CF3E759F8047BA2
:10266000761C30786C280FD006DC4C2817D06828F0
:102670000DD06A2814D104E0742810D07A280FD124
:102680000DE044F400140AE044F4801401E044F442
:1026900040147278824202D104F58014761C761CB4
:1026A000307866280BD013DC582877D009DC002856
:1026B00075D04528F6D04628F4D047281AD19DE198
:1026C00018E0632835D0642879D0652812D195E1C7
:1026D000702873D008DC6728F1D069286FD06E2885
:1026E0000DD06F2806D1B5E073282CD0752875D091
:1026F000782874D05A46179990476D1C75E1C4F339
:102700000250022809D003280DD0D9F8001004285F
:102710000DD00D6009F1040967E1D9F80010EA173E
:10272000C1E90052F6E7D9F800100D80F2E70D700C
:10273000F0E719F8041B8DF8001000208DF8010057
:10274000EA46012003E059F804AB4FF0FF3061077F
:102750004FF0000102D40DE008F101018846B942B2
:102760000FDA8045F8DB1AF808100029F4D108E0E8
:1027700008F1010188468142FADB1AF808100029A5
:10278000F6D105985B46A0EB080721463846179A14
:1027900000F094FA284400EB080507E04DE029E139
:1027A0000DE01AF8010B5A4617999047B8F1010845
:1027B000F7D25B4621463846179A13E142E00A22D7
:1027C0000092C4F302524FF0000A022A08D059F8CE
:1027D00004CB032A4FEAEC710AD00DE029E02AE08D
:1027E00009F1070121F00702F2E802C1914609E070
:1027F0000FFA8CFC4FEAEC71042A03D14FFA8CFCDF
:102800004FEAEC71002907DA0A460021DCF1000CDE
:1028100061EB02012D2202E0220504D52B228DF866
:102820000420012203E0E20701D02022F7E79046CE
:1028300059E00A2102E010220DE010214FF0000AB9
:1028400000910BE010224FF0000A44F00404082726
:10285000009203E008224FF0000A0092C4F30252F3
:10286000022A05D059F804CB0021032A08D009E038
:1028700009F1070121F00702F2E802C1914605E0E3
:102880001FFA8CFC042A01D10CF0FF0C4FF0000859
:10289000220728D5702806D0009B83F0100353EA46
:1028A0000A0305D00EE040228DF80420012208E042
:1028B0005CEA010206D030228DF804208DF8050074
:1028C00002229046009B83F0080353EA0A030AD1D0
:1028D0005CEA010201D1620705D530228DF804209F
:1028E0004FF001087F1E582804D034A003900EA892
:1028F00002900DE036A0F9E753466046009AFDF7D6
:102900004BFE84460398825C0298401E029002703F
:102910005CEA0100F0D1029806A9081A00F1200A29
:10292000600702D524F4803400E00127574502DD1A
:10293000A7EB0A0000E0002000EB0A0100900598D8
:102940004144401A0590E00306D45B462146179A9D
:10295000059800F0B3F90544002706E001A85A469F
:10296000C05D179990476D1C7F1C4745F6DBE0035F
:102970000CD55B462146179A059800F09FF905444F
:1029800004E030205A46179990476D1C0099481E64
:1029900000900029F5DC08E0029802995A46007878
:1029A000491C0291179990476D1CBAF10001AAF1D8
:1029B000010AF1DC65E10000092801003031323301
:1029C000343536373839616263646566000000006B
:1029D0003031323334353637383941424344454655
:1029E0000000000000F058F90544761C30780028FB
:1029F0007FF4ECAD19B02846BDE8F08F620700D433
:102A0000062709F1070222F0070CFCE80223E14641
:102A100003F000485FEA080C02D00FF2702C0DE0C2
:102A20005FEA045C02D50FF2682C07E05FEAC47C21
:102A300002D00FF2602C01E0AFF2700C4FF0FF38C3
:102A400023F00043CDF850C065280CD006DC4528A3
:102A500009D046281DD047283DD13DE0662818D032
:102A600067287ED138E00021112F01DB112000E022
:102A7000781CCDE9000106A90EA8FFF7DDFCDDE911
:102A80000F010E9A03910021009207F1010A0491AF
:102A90004DE04FF000400097CDE9011006A90EA8C7
:102AA000FFF7CAFCDDE90F0203920E9B1199002289
:102AB000DDF80CA00093049211B9791C00EB010A17
:102AC000B7EB0A0004D4C0F1FF3007F1010A04900B
:102AD000AAEB0700019044E0012F00DA0127002152
:102AE000112F01DD112000E03846CDE9000106A9D3
:102AF0000EA8FFF7A1FCDDE90F010E9A039100215A
:102B000004910092BA4621070CD40399514500DA8A
:102B10008A46BAF1010F05DD009AAAF10101515C64
:102B2000302908D0B84202DA10F1040F06DA012188
:102B3000CDE9011015E0AAF10101E9E7002805DC63
:102B4000049901440491AAEB000102E0411C5145A3
:102B500000DD8A460499401A401C01904FF0004065
:102B60000290200704D40198504501DBCDF8048081
:102B700000208DF84F0002980DF14F07B0F1004F83
:102B800025D02B200E9002984FF0020800280CDA76
:102B9000404202902D200E9007E00A210298FDF796
:102BA000E5FC3031029007F8011DB8F10001A8F1F1
:102BB0000108F2DC02980028EFD1791E0E98087007
:102BC000307800F0200040F0450007F8020D12A810
:102BD000C01B00F107081498007800B1012000EB39
:102BE0000A01019801EBE07105984144401A401E2A
:102BF0000590E00306D45B462146179A059800F03D
:102C00005DF805441498007818B15A461799904712
:102C10006D1CE00324D55B462146179A059800F009
:102C20004DF805441CE00498002807DBDDE90301AA
:102C3000884203DD0098405C179901E01799302025
:102C40005A469047049805F10105401C04900198EC
:102C5000401E019004D12E205A46179990476D1CB2
:102C6000BAF10001AAF1010ADDDC05E017F8010B59
:102C70005A46179990476D1CB8F10001A8F1010858
:102C8000F4DC5B462146179A0598ABE62D00000060
:102C90002B000000200000002DE9F0410446002533
:102CA0001E461746880404D405E039462020B04764
:102CB0006D1C641EF9D52846BDE8F0812DE9F04170
:102CC000044600251E469046C80301D5302700E083
:102CD0002027880404D505E041463846B0476D1CDE
:102CE000641EF9D52846BDE8F0810A68531C0B60C4
:102CF0001070704700B587B001214FF40170FEF7E6
:102D000049FD4020ADF8180000208DF81B0006A9F1
:102D10001948FEF7CDF84FF40040FEF71FFD1748A5
:102D2000FDF724FE002001908DF808008DF80900C1
:102D30004FF4602003900020049001208DF81400CF
:102D400001A90E48FDF762FE01210C48FDF703FEC4
:102D50000A48FDF7DFFE00BF0848FDF74CFE0028DB
:102D6000FAD10648FDF7E6FE00BF0448FDF72CFE49
:102D70000028FAD107B000BD00080140002401403E
:102D800010B56FF00400FEF7B5FE0A4800680A4966
:102D9000B0FBF1F0094908700846007800EB4001EB
:102DA000C1EBC0104FF6FF7101EAC0000449088072
:102DB00010BD00002C00002000127A0054000020FA
:102DC000560000200146114A12884A434FF0E02382
:102DD0005A6100229A611A46126942F001021A6190
:102DE00000BF4FF0E022106900F001021AB100F4B8
:102DF0008032002AF5D04FF0E022126922F0010261
:102E00004FF0E0231A6100229A61704756000020BB
:102E10000146114A12784A434FF0E0235A610022DA
:102E20009A611A46126942F001021A6100BF4FF01E
:102E3000E022106900F001021AB100F48032002A89
:102E4000F5D04FF0E022126922F001024FF0E023AA
:102E50001A6100229A6170475400002000BF054AA1
:102E6000128802F04002002AF9D0C2B2014B1B1DA9
:102E70001A80704700380140FEF722FAFEF750FE34
:102E8000FFF77EFFFDF77AFEFEF7FCF8FEF7AAFEDD
:102E9000FEF70CFDFDF7CCFF8F2142F20F70FEF71D
:102EA0000DFF2EA201210846FEF7ACFA2FA2012148
:102EB0000220FEF7A7FA2FA201210320FEF7A2FAB3
:102EC0002EA201210420FEF79DFA4FF4A060FEF728
:102ED00053F94FF4E13000F061F8FFF70BFFFEF714
:102EE000B7F8002141F61F40FEF7C0FAFEF748FE92
:102EF00032E00A210620FEF793F8224908800846AE
:102F00000088FDF7C6FA8046FDF7EDFA06464FF059
:102F100066321D4BFDF7DCF90446FDF7F7FA1B4955
:102F200008601B48FDF72EFE10B1FDF7EFFE04E030
:102F300018A20B210320FEF765FAFDF773FF40B1DD
:102F4000FDF76CFF04462046FEF7E2FAFDF760FF4E
:102F500000BF0A20FFF736FFCBE700004448543299
:102F600032204D6F6E69746F7200000054656D7091
:102F70003A20000048756D693A200000534F433AEB
:102F8000000000001C0000206626823F2000002078
:102F9000240000206572726F7200000010B586B0C8
:102FA0000446012144F20400FEF7F4FB4FF40070E4
:102FB000ADF8140003208DF8160018208DF81700C6
:102FC00005A91C48FDF774FF4FF48060ADF81400AC
:102FD00004208DF8170005A91648FDF769FF252084
:102FE0008DF8000003208DF801008DF8020001200B
:102FF0008DF803006846FEF787F801940020ADF8CD
:103000000800ADF80A00ADF80C00ADF810000C2077
:10301000ADF80E0001A90848FFF762F9012240F25D
:1030200025510548FFF736F901210348FFF7EFF86E
:1030300006B010BD0008014000380140000000004B
:10304000000000000000000000000000000000F888
:1030500000000000000000333000000000100C06EB
:10306000100C0600000000000000000040C0784086
:10307000C0784000043F04043F040400007088FC52
:1030800008300000001820FF211E0000F008F000AA
:10309000E018000000211C031E211E0000F008881B
:1030A000700000001E2123241927211010160E0085
:1030B000000000000000000000000000000000E030
:1030C0001804020000000007182040000002041845
:1030D000E00000000040201807000000404080F0A1
:1030E000804040000202010F01020200000000F0D7
:1030F000000000000101011F0101010000000000AB
:103100000000000080B0700000000000000000001F
:1031100000000000000101010101010100000000A8
:10312000000000000030300000000000000000003F
:1031300080601804006018060100000000E010081C
:103140000810E000000F102020100F00001010F8F1
:10315000000000000020203F202000000070080830
:1031600008887000003028242221300000300888B0
:10317000884830000018202020110E000000C020D8
:1031800010F8000000070424243F240000F80888F9
:10319000880808000019212020110E0000E0108886
:1031A00088180000000F112020110E0000380808B8
:1031B000C83808000000003F0000000000708808C8
:1031C00008887000001C222121221C0000E0100849
:1031D0000810E0000000312222110F00000000C0A2
:1031E000C00000000000003030000000000000803F
:1031F000000000000000806000000000000080402F
:103200002010080000010204081020004040404047
:10321000404040000404040404040400000810209A
:1032200040800000002010080402010000704808DF
:103230000808F0000000003036010000C030C82847
:10324000E810E0000718272423140B000000C03802
:10325000E0000000203C23020227382008F888887C
:1032600088700000203F202020110E00C030080888
:1032700008083800071820202010080008F808085F
:103280000810E000203F202020100F0008F8888858
:10329000E8081000203F20202320180008F8888824
:1032A000E8081000203F200003000000C03008089C
:1032B0000838000007182020221E020008F8080025
:1032C0000008F808203F210101213F20000808F8EC
:1032D000080800000020203F20200000000008080F
:1032E000F8080800C08080807F00000008F888C0CF
:1032F00028180800203F20012638200008F8080080
:1033000000000000203F20202020300008F8F800B6
:10331000F8F80800203F003F003F200008F830C0C8
:103320000008F808203F200007183F00E0100808B8
:103330000810E0000F10202020100F0008F80808E7
:103340000808F000203F210101010000E0100808FA
:103350000810E0000F18242438504F0008F888881F
:1033600088887000203F2000030C302000708808FF
:10337000080838000038202121221C00180808F80D
:10338000080818000000203F2000000008F808008E
:103390000008F808001F202020201F00087888005F
:1033A00000C83808000007380E010000F80800F8CF
:1033B0000008F800033C0700073C03000818688079
:1033C0008068180820302C03032C30200838C800EF
:1033D000C83808000000203F20000000100808083E
:1033E000C83808002038262120201800000000FEE0
:1033F000020202000000007F40404000000C30C08C
:1034000000000000000000010638C00000020202B7
:10341000FE000000004040407F0000000000040269
:103420000202040000000000000000000000000094
:103430000000000080808080808080800002020484
:10344000000000000000000000000000000080807C
:10345000808000000019242222223F2008F80080EA
:1034600080000000003F112020110E0000000080AD
:1034700080800000000E112020201100000000803C
:103480008088F800000E112020103F20000080806E
:1034900080800000001F222222221300008080F082
:1034A000888888180020203F2020000000008080AD
:1034B00080808000006B94949493600008F80080F2
:1034C00080800000203F210000203F20008098984D
:1034D000000000000020203F2020000000000080AD
:1034E0009898000000C08080807F000008F80000ED
:1034F00080808000203F24022D302000000808F842
:10350000000000000020203F2020000080808080FC
:1035100080808000203F20003F20003F808000808E
:1035200080800000203F210000203F20000080809C
:1035300080800000001F202020201F00808000804D
:103540008000000080FFA12020110E0000000080FC
:1035500080808000000E112020A0FF8080808000ED
:103560008080800020203F2120000100000080801A
:10357000808080000033242424241900008080E00F
:10358000808000000000001F2020000080800000DC
:1035900000808000001F202020103F2080808000BD
:1035A0000080808000010E300806010080800080CD
:1035B000008080800F300C030C300F0000808000F2
:1035C000808080000020312E0E312000808080001D
:1035D0000080808080818E701806010000808080CD
:1035E000808080000021302C22213000000000006B
:1035F000807C020200000000003F4040000000000C
:10360000FF00000000000000FF0000000002027C3C
:10361000800000000040403F000000000006010163
:103620000202040400000000000000004C36000804
:10363000000000207C00000018240008C8360008A4
:103640007C000020B40500002824000814000000BD
:10365000140000000000803F000040400000000017
:10366000000000000000000000000000000000005A
:10367000000000000000000000A24A04000000005A
:103680000000000001020304060708090000000012
:1036900001020304010203040607080902040608E4
:1036A000000000000000000000000000000000001A
:1036B0000000000002030000B80B0000050000003D
:0836C000000000000000000002
:04000005080000ED02
:00000001FF
